S01000004255505F323031392E7372656302
S11300000C942A000C9447000C9447000C9447006D
S11300100C9447000C9447000C9447000C940C017A
S11300200C9447000C9447000C9447000C94470030
S11300300C9447000C9447000C9447000C94470020
S11300400C9447000C9447000C9447000C94470010
S11300500C94470011241FBECFE5D8E0DEBFCDBF0E
S113006010E0A0E6B0E0E8E3F0E102C005900D92F4
S1130070AA3CB107D9F721E0AAECB0E001C01D9277
S1130080AB30B207E1F70E9434040C941A080C94C4
S113009000003E9A379A86B1876086B9089597B171
S11300A0907E97B997B1892B87B9369A3699FECF46
S11300B084B195B108959F92AF92BF92CF92DF928F
S11300C0EF92FF920F931F93CF93DF931092D1007F
S11300D01092CD001092CE001092CC001092CB0062
S11300E01092CA000F2EF4E9CF2EF0E0DF2EF02D8F
S11300F00FEF1FEF0F2EFEEFFF2EF02DD1E0C0E02B
S11301000F2EF5E0BF2EF02DA12CE12C9924939411
S113011006C0CF5FDF5FF394F3940F5F1F4F8C2F04
S11301200E944F00F601219131916F0182179307CC
S113013010F5C11103C09092CD00EBCFC73041F44C
S113014081E08093CE008091CD00813029F51DC0DF
S11301508B2D90E00817190714F4B02E06C08A2DD1
S113016090E0801791070CF4A02EEF0C8091D10041
S11301708F5F8093D100D83060F28091CD008130C0
S113018059F48091CE00813039F41092CD00109250
S1130190CE0081E08093CC002091D1008E2D622F7F
S11301A00E94AB078093D200263071F48091CC007A
S11301B0813051F48091CF009091D00001969093BA
S11301C0D0008093CF0004C01092D0001092CF00D2
S11301D0DF91CF911F910F91FF90EF90DF90CF901F
S11301E0BF90AF909F9008959093E8008093E700AC
S11301F089B7806189BF78941DBC1CBC89EF90E0ED
S11302009BBD8ABD8EB58B608EBD08951EBC19BE84
S1130210F8941DBC1CBC08951F920F920FB60F9248
S113022011242F933F938F939F938091E900909192
S1130230EA0001969093EA008093E9001DBC1CBC7F
S11302402091E9003091EA008091E7009091E80064
S11302502817390750F08EB58EBD81E08093E600F3
S11302601092EA001092E900F8949F918F913F91C7
S11302702F910F900FBE0F901F90189580E090E083
S11302800E94C90580E090E00E94CB05AF9AAE9829
S1130290AD9AAC98089580E090E00E94C90580E092
S11302A090E00E94CB05AF98AE9AAD9AAC980895B1
S11302B080E090E00E94C90580E090E00E94CB05B8
S11302C0AF9AAE98AD98AC9A08958F929F92AF92E0
S11302D0BF92CF92DF92EF92FF92CF93DF93609120
S11302E0D20070E065507109072E000C880B990B41
S11302F00E94B2066B017C016093E2007093E300FC
S11303008093E4009093E5002091DE003091DF00BB
S11303104091E0005091E1000E940D064B015C0108
S1130320609160007091610080E090E00E94B006EE
S11303309B01AC01C501B4010E943E074B015C0165
S1130340609162007091630080E090E00E94B006CA
S1130350A70196010E943E079B01AC01C501B401AF
S11303600E940E066093DA007093DB008093DC0039
S11303709093DD00C092DE00D092DF00E092E000B6
S1130380F092E1000E947A067093D9006093D8003D
S11303906F3F7105C1F0BCF06F5F6093D300CFEF86
S11303A0D0E0D093D900C093D8000E945801809126
S11303B0D30090E09093D5008093D400D093D700DD
S11303C0C093D6004DC061304FEF7407DCF421E0D8
S11303D0822F861B8093D30081E09FEF9093D900F6
S11303E08093D8000E944B018FEF90E09093D5004A
S11303F08093D4008091D30090E09093D7008093B1
S1130400D6002EC06F3F7105A0F40E943E018FEF0D
S113041090E02091D8003091D900AC01421B530BDD
S11304205093D5004093D4009093D7008093D60086
S113043017C062507F4F6E3F710590F40E943E01D9
S11304408FEF90E09093D5008093D4008091D800F2
S11304509091D90081509F4F9093D7008093D600FC
S1130460DF91CF91FF90EF90DF90CF90BF90AF904E
S11304709F908F90089580E090E00E94C90580E0ED
S113048090E00E94CB05AF9AAE98AD9AAC988FEFEE
S113049090E00E94C9058FEF90E00E94CB0508957B
S11304A080E090E00E94C90580E090E00E94CB05C6
S11304B0AF98AE9AAD98AC9A82E890E00E94C905D4
S11304C082E890E00E94CB0508950E9450028FE8D4
S11304D091E00197F1F700C0000080E090E00E94F5
S11304E0C90580E090E00E94CB05AF98AE98AD9826
S11304F0AC980895CF93DF93C82F80E090E00E94DA
S1130500C90580E090E00E94CB05AF9AAE98AD9803
S1130510AC9AD0E0CE010E94C905CE010E94CB0561
S1130520DF91CF9108955F926F927F928F929F9205
S1130530AF92BF92CF92DF92EF92FF920F931F93ED
S1130540CF93DF9380ED97E00E94F4008AEA0E9443
S11305507A021DC08C2F0E944F00282F392FF701DB
S1130560408151814217530710F480839183F8012D
S1130570408151812417350710F480839183CF5F24
S1130580F2E0EF0EF11C0E5F1F4FC83019F7809197
S1130590E60081110AC00F2EFBEEEF2EF0E0FF2ED5
S11305A0F02D04E610E0C0E0D5CF1092E6000E94E2
S11305B006010E94650284EA90E00E94DF050BEECA
S11305C010E0CBEFD0E078016AE070E0F7018191B0
S11305D091917F010E94EE0589E00E94DB05EC16F3
S11305E0FD0691F78AE00E94DB0589EA90E00E940B
S11305F0DF050F2EF4E66F2EF0E07F2EF02D0F2E88
S1130600F4E7CF2EF0E0DF2EF02D73016AE070E006
S1130610F701819191917F010E94EE0589E00E948A
S1130620DB05EC14FD0491F78AE00E94DB058EEAF9
S113063090E00E94DF050F2EF4E9EF2EF0E0FF2E8C
S1130640F02D57010F2EF4E6CF2EF0E0DF2EF02D23
S11306500F2EFBEE8F2EF0E09F2EF02DF401219152
S113066031914F01F601819191916F01820F931F96
S113067096958795F501819391935F016AE070E007
S11306800E94EE0589E00E94DB058C169D0631F779
S11306908AE00E94DB0583EB90E00E94DF050F2EC9
S11306A0F4E88F2EF0E09F2EF02D0F2EF4E9AF2EFC
S11306B0F0E0BF2EF02D0F2EFBEECF2EF0E0DF2E5C
S11306C0F02D0F2EFEE15F2EF02DF6018191919118
S11306D06F01F501419151915F01841B950B589E67
S11306E09001599E300D11243695279536952795FE
S11306F0ABE7B4E10E94CB0796958795840F951FCD
S1130700F401819391934F016AE070E00E94EE0539
S113071089E00E94DB05CC16DD06B9F68AE00E946A
S1130720DB0588EB90E00E94DF050F2EF4E7AF2E87
S1130730F0E0BF2EF02D0F2EF4EA8F2EF0E09F2E66
S1130740F02D0F2EF4E6CF2EF0E0DF2EF02D0F2E3D
S1130750FEE15F2EF02DF701419151917F01F601E9
S1130760819191916F019A01281B390BC901589EFF
S11307709001599E300D112436952795369527956D
S1130780ABE7B4E10E94CB0796958795FA01E81B85
S1130790F90BCF01F501819391935F016AE070E059
S11307A00E94EE0589E00E94DB058E149F0499F6F1
S11307B08AE00E94DB058DEB90E00E94DF050F2E9E
S11307C0FBEFEF2EF0E0FF2EF02D0F2EF0E2CF2EF8
S11307D0FEE4DF2EF02DF801619171918F01F30198
S11307E0819191913F01681B790BC6010E94B70763
S11307F0CB01F701619371937F016AE070E00E947D
S1130800EE0589E00E94DB050C171D0721F782EC39
S113081090E00E94DF05DF91CF911F910F91FF902F
S1130820EF90DF90CF90BF90AF909F908F907F908C
S11308306F905F900895CF93DF93C82F80E090E08E
S11308400E94C90580E090E00E94CB05AF98AE9A63
S1130850AD9AAC98D0E0CE010E94C905CE010E94A9
S1130860CB05DF91CF9108958C9A8D9AB99A8B9884
S11308708A98BA98A79AA69AA59AA49A8F9ABB9A84
S11308800E9449000E94CD050E94B5050E94BF0543
S11308900E943E012FEF83ED90E321508040904071
S11308A0E1F700C000000E9493022FEF83ED90E374
S11308B0215080409040E1F700C000000E943B02BC
S11308C00E945B008091CD00813009F048C1809185
S11308D0D2008450833008F042C10E943B020CC015
S11308E00E945B008091CC00813009F41EC180918C
S11308F0CE00813009F419C18091CD00813081F39B
S11309008091CC00811111C18091CE0081110DC163
S11309102FEF81EE94E0215080409040E1F700C039
S113092000000E945B008091D1008111FEC0809183
S1130930CE008111FAC00E9450022FEF85EA9EE09A
S1130940215080409040E1F700C0000088E70E94F9
S11309501B042FEF81EE94E0215080409040E1F79A
S113096000C0000002C00E945B008091D100882377
S1130970D1F38091D2008530B0F3D7C00E943B02FE
S11309800CC00E945B008091CC00813009F4CDC082
S11309908091CD00813009F4C8C08091CE008130AF
S11309A081F38091CC008111C0C08091CD00811170
S11309B0BCC02FEF82E597E0215080409040E1F7E2
S11309C000C000000E9450022FEF86E191E1215007
S11309D080409040E1F700C0000088E70E947A025E
S11309E02FEF87E893E1215080409040E1F700C069
S11309F0000002C00E945B008091D1008823D1F3E3
S1130A008091D2008630B0F790C08091CC008130C4
S1130A1009F08BC08091D2008450833008F085C0E7
S1130A200E943B028091CC008130A9F48091CF00D8
S1130A309091D00084369105ACF40E945B008091C3
S1130A40CC00813041F48091CF009091D000843665
S1130A5091059CF307C08091CF009091D00084361B
S1130A6091055CF10E9450022FEF81EE94E0215039
S1130A7080409040E1F700C000000E9465022FEF23
S1130A8087EA91E6215080409040E1F700C00000E1
S1130A908091D100863009F048C08091CC0081302B
S1130AA009F043C00E945B008091D1008630E9F5D3
S1130AB08091CC008130B1F338C02FEF82E597E00C
S1130AC0215080409040E1F700C000000E945B008C
S1130AD080EA0E947A028091D100811126C080911F
S1130AE0CD00811122C00E9450022FEF86E191E1D6
S1130AF0215080409040E1F700C0000088E70E9448
S1130B007A022FEF83EC99E0215080409040E1F786
S1130B1000C0000002C00E945B008091D1008823C5
S1130B20D1F38091D2008630B0F78091D2008F3F0C
S1130B3009F4C6CE0E9465018091D6009091D70039
S1130B400E94C9058091D4009091D5000E94CB05E4
S1130B50B7CE8091D2008450833038F70FCF809184
S1130B60CE00813009F051CFF4CF83B7886483BFBE
S1130B7083B7806283BF83B7816083BF089585B5DF
S1130B80886485BD85B5806285BD85B5816085BD78
S1130B9008958CBF089583BD089580B58F7B80BD73
S1130BA0599810BC87E689B98AB188618AB980B539
S1130BB08E6880BD08955D9BFECF8CB90895CF9358
S1130BC0DF93EC018881882331F021960E94DB05B4
S1130BD089918111FBCFDF91CF910895CF93DF935A
S1130BE0CDB7DEB764970FB6F894DEBF0FBECDBFA6
S1130BF0AB015D9BFECFBE016F5F7F4F0E94DA07A2
S1130C00CE0101960E94DF0564960FB6F894DEBF0C
S1130C100FBECDBFDF91CF9108955058BB27AA27AF
S1130C200E9425060C9404070E94F60638F00E94E0
S1130C30FD0620F039F49F3F19F426F40C94F306D2
S1130C400EF4E095E7FB0C94ED06E92F0E941507DE
S1130C5058F3BA17620773078407950720F079F4ED
S1130C60A6F50C9437070EF4E0950B2EBA2FA02DA1
S1130C700B01B90190010C01CA01A0011124FF2745
S1130C80591B99F0593F50F4503E68F11A16F04040
S1130C90A22F232F342F4427585FF3CF469537953F
S1130CA02795A795F0405395C9F77EF41F16BA0B04
S1130CB0620B730B840BBAF09150A1F0FF0FBB1FB2
S1130CC0661F771F881FC2F70EC0BA0F621F731FFB
S1130CD0841F48F4879577956795B795F7959E3F58
S1130CE008F0B0CF9395880F08F09927EE0F9795E9
S1130CF0879508950E9481066894B1110C94380771
S1130D0008950E941D0788F09F5798F0B92F9927DE
S1130D10B751B0F0E1F0660F771F881F991F1AF0E2
S1130D20BA95C9F714C0B13091F00E943707B1E009
S1130D3008950C943707672F782F8827B85F39F008
S1130D40B93FCCF3869577956795B395D9F73EF47B
S1130D5090958095709561957F4F8F4F9F4F089523
S1130D60E89409C097FB3EF4909580957095619541
S1130D707F4F8F4F9F4F9923A9F0F92F96E9BB27F7
S1130D809395F695879577956795B795F111F8CF73
S1130D90FAF4BB0F11F460FF1BC06F5F7F4F8F4FDE
S1130DA09F4F16C0882311F096E911C0772321F0D4
S1130DB09EE8872F762F05C0662371F096E8862F6C
S1130DC070E060E02AF09A95660F771F881FDAF7C3
S1130DD0880F9695879597F9089597F99F6780E806
S1130DE070E060E008959FEF80EC089500240A9479
S1130DF01616170618060906089500240A941216F2
S1130E001306140605060895092E0394000C11F424
S1130E10882352F0BB0F40F4BF2B11F460FF04C0D1
S1130E206F5F7F4F8F4F9F4F089557FD9058440F2A
S1130E30551F59F05F3F71F04795880F97FB991F35
S1130E4061F09F3F79F087950895121613061406F2
S1130E50551FF2CF4695F1DF08C01616170618067F
S1130E60991FF1CF86957105610508940895E8945A
S1130E70BB2766277727CB0197F908950E9451076E
S1130E800C9404070E94F60638F00E94FD0620F038
S1130E90952311F00C94ED060C94F30611240C9494
S1130EA038070E94150770F3959FC1F3950F50E022
S1130EB0551F629FF001729FBB27F00DB11D639F08
S1130EC0AA27F00DB11DAA1F649F6627B00DA11DAE
S1130ED0661F829F2227B00DA11D621F739FB00D54
S1130EE0A11D621F839FA00D611D221F749F3327C4
S1130EF0A00D611D231F849F600D211D822F762F5D
S1130F006A2F11249F5750409AF0F1F088234AF039
S1130F10EE0FFF1FBB1F661F771F881F91505040A5
S1130F20A9F79E3F510580F00C94ED060C94380708
S1130F305F3FE4F3983ED4F3869577956795B7952C
S1130F40F795E7959F5FC1F7FE2B880F911D969546
S1130F50879597F90895991B79E004C0991F96170E
S1130F6008F0961B881F7A95C9F780950895AA1BE7
S1130F70BB1B51E107C0AA1FBB1FA617B70710F080
S1130F80A61BB70B881F991F5A95A9F780959095B2
S1130F90BC01CD010895A29FB001B39FC001A39FDE
S1130FA0700D811D1124911DB29F700D811D11249E
S1130FB0911D08954532510520F4423010F00C94EF
S1130FC0E507FB011082CB010895BB274A3031F4B9
S1130FD0992322F4BDE2909581959F4F0C94F107DB
S1130FE0BB27FB015527AA27880F991FAA1FA417FF
S1130FF010F0A41B83955051B9F7A05DAA3308F0F3
S1131000A95DA193009779F7B111B1931192CB0126
S11310100C940A08DC01FC01672F71917723E1F736
S1131020329704C07C916D9370836291AE17BF07B1
S10B1030C8F30895F894FFCF02
S1131038FA004B00FF03FF03FF03FF03FF03FF0353
S1131048FF03FF037101E601B001F101DB01CB01EC
S1131058F701B6012302AC026A02C102A702970291
S1131068D3027C0283016001B901A6018C01AB01A2
S1131078350143014D415809004D494E0900544872
S113108852090055544809004C5448090050524F1D
S10D109809000A0A0A0A0A0A000005
S9030000FC
