:100000000C942A000C9447000C9447000C94470071
:100010000C9447000C9447000C9447000C94610129
:100020000C9447000C9447000C9447000C94470034
:100030000C9447000C9447000C9447000C94470024
:100040000C9447000C9447000C9447000C94470014
:100050000C94470011241FBECFE5D8E0DEBFCDBF12
:1000600010E0A0E6B0E0E6E9F2E102C005900D92F2
:10007000AA3CB107D9F721E0AAECB0E001C01D927B
:10008000AA31B207E1F70E949E040C9449090C942E
:1000900000003E9A379A86B1876086B9089597B175
:1000A000907E97B997B1892B87B9369A3699FECF4A
:1000B00084B195B108951092CD009598959A35E345
:1000C0003A95F1F70000959821E02EC08EB5826038
:1000D0008EBD829B1EC01DBC1CBC0BC08CB59DB5CB
:1000E0008938934130F01EBC1DBC1CBC8FE690E0EB
:1000F00008958299F3CF1EBC8CB59DB596958795D2
:100100009093CC008093CB001DBC1CBC2093CD00F1
:100110000BC08CB59DB58131974230F01EBC1DBC23
:100120001CBC80E790E008958091CD00882371F297
:100130006091CB007091CC0080E090E00E94DF07DE
:1001400029E23CE54FE05DE30E946D0820E030E0ED
:1001500040E05FE30E946D080E94B007CB01089564
:100160009F92AF92BF92CF92DF92EF92FF920F9346
:100170001F93CF93DF931092D5001092D10010926D
:10018000D2001092D0001092CF001092CE000F2E0D
:10019000F4E9CF2EF0E0DF2EF02D0FEF1FEF0F2E42
:1001A000FEEFFF2EF02DD1E0C0E00F2EF5E0BF2EC8
:1001B000F02DA12CE12C9924939406C0CF5FDF5F32
:1001C000F394F3940F5F1F4F8C2F0E944F00F601A2
:1001D000219131916F018217930710F5C11103C06E
:1001E0009092D100EBCFC73041F481E08093D200F0
:1001F0008091D100813029F51DC08B2D90E008172A
:10020000190714F4B02E06C08A2D90E080179107CC
:100210000CF4A02EEF0C8091D5008F5F8093D50059
:10022000D83060F28091D100813059F48091D200B1
:10023000813039F41092D1001092D20081E0809385
:10024000D0002091D5008E2D622F0E94DA08809375
:10025000D600263071F48091D000813051F4809125
:10026000D3009091D40001969093D4008093D30052
:1002700004C01092D4001092D300DF91CF911F914F
:100280000F91FF90EF90DF90CF90BF90AF909F9035
:1002900008959093EC008093EB0089B7806189BF4B
:1002A00078941DBC1CBC89EF90E09BBD8ABD8EB5C7
:1002B0008B608EBD08951EBC19BEF8941DBC1CBC7D
:1002C00008951F920F920FB60F9211242F933F9310
:1002D0008F939F938091ED009091EE000196909303
:1002E000EE008093ED001DBC1CBC2091ED00309110
:1002F000EE008091EB009091EC002817390750F048
:100300008EB58EBD81E08093EA001092EE001092CF
:10031000ED00F8949F918F913F912F910F900FBE18
:100320000F901F90189580E090E00E94F80680E002
:1003300090E00E94FA06AF9AAE98AD9AAC980895F4
:1003400080E090E00E94F80680E090E00E94FA06CB
:10035000AF98AE9AAD9AAC98089580E090E00E9474
:10036000F80680E090E00E94FA06AF9AAE98AD9849
:10037000AC9A08958F929F92AF92BF92CF92DF92E4
:10038000EF92FF92CF93DF936091D60070E06550BB
:100390007109072E000C880B990B0E94E1076B0175
:1003A0007C016093E6007093E7008093E8009093EF
:1003B000E9002091E2003091E3004091E400509187
:1003C000E5000E943C074B015C0160916000709168
:1003D000610080E090E00E94DF079B01AC01C50155
:1003E000B4010E946D084B015C0160916200709144
:1003F000630080E090E00E94DF07A70196010E9461
:100400006D089B01AC01C501B4010E943D076093DA
:10041000DE007093DF008093E0009093E100C092D3
:10042000E200D092E300E092E400F092E5000E9446
:10043000A9077093DD006093DC006F3F7105C1F088
:10044000BCF06F5F6093D700CFEFD0E0D093DD00BA
:10045000C093DC000E94AD018091D70090E09093A2
:10046000D9008093D800D093DB00C093DA004DC050
:1004700061304FEF7407DCF421E0822F861B8093FC
:10048000D70081E09FEF9093DD008093DC000E9415
:10049000A0018FEF90E09093D9008093D8008091D5
:1004A000D70090E09093DB008093DA002EC06F3F7E
:1004B0007105A0F40E9493018FEF90E02091DC0081
:1004C0003091DD00AC01421B530B5093D900409397
:1004D000D8009093DB008093DA0017C062507F4F02
:1004E0006E3F710590F40E9493018FEF90E090931E
:1004F000D9008093D8008091DC009091DD0081507C
:100500009F4F9093DB008093DA00DF91CF91FF90B3
:10051000EF90DF90CF90BF90AF909F908F90089515
:1005200080E090E00E94F80680E090E00E94FA06E9
:10053000AF9AAE98AD9AAC988FEF90E00E94F80613
:100540008FEF90E00E94FA06089580E090E00E940C
:10055000F80680E090E00E94FA06AF9AAE98AD9A55
:10056000AC988CE890E00E94F8068CE890E00E943D
:10057000FA06089580E090E00E94F80680E090E09E
:100580000E94FA06AF98AE9AAD98AC9A82E890E0D5
:100590000E94F80682E890E00E94FA0608950E9400
:1005A000BA028FE891E00197F1F700C0000080E007
:1005B00090E00E94F80680E090E00E94FA06AF9872
:1005C000AE98AD98AC980895CF93DF93C82F80E094
:1005D00090E00E94F80680E090E00E94FA06AF9A50
:1005E000AE98AD98AC9AD0E0CE010E94F806CE014C
:1005F0000E94FA06DF91CF9108955F926F927F92E9
:100600008F929F92AF92BF92CF92DF92EF92FF9222
:100610000F931F93CF93DF9380ED97E00E944901E2
:100620008AEA0E94E4021DC08C2F0E944F00282FEE
:10063000392FF701408151814217530710F480830D
:100640009183F801408151812417350710F480838C
:100650009183CF5FF2E0EF0EF11C0E5F1F4FC830A9
:1006600019F78091EA0081110AC00F2EF0EFEF2EEA
:10067000F0E0FF2EF02D04E610E0C0E0D5CF1092A0
:10068000EA000E945B010E94CF0284EA90E00E948F
:100690000E0700EF10E0C0E0D1E078016AE070E002
:1006A000F701819191917F010E941D0789E00E94CD
:1006B0000A07EC16FD0691F78AE00E940A0789EA0C
:1006C00090E00E940E070F2EF4E66F2EF0E07F2ED2
:1006D000F02D0F2EF4E7CF2EF0E0DF2EF02D73017A
:1006E0006AE070E0F701819191917F010E941D07FE
:1006F00089E00E940A07EC14FD0491F78AE00E9449
:100700000A078EEA90E00E940E070F2EF4E9EF2E02
:10071000F0E0FF2EF02D57010F2EF4E6CF2EF0E083
:10072000DF2EF02D0F2EF0EF8F2EF0E09F2EF02D0C
:10073000F401219131914F01F601819191916F0165
:10074000820F931F96958795F501819391935F0191
:100750006AE070E00E941D0789E00E940A078C167B
:100760009D0631F78AE00E940A0783EB90E00E9421
:100770000E070F2EF4E88F2EF0E09F2EF02D0F2E97
:10078000F4E9AF2EF0E0BF2EF02D0F2EF0EFCF2EBC
:10079000F0E0DF2EF02D0F2EFEE15F2EF02DF601A2
:1007A000819191916F01F501419151915F01841BFC
:1007B000950B589E9001599E300D11243695279522
:1007C00036952795ABE7B4E10E94FA089695879590
:1007D000840F951FF401819391934F016AE070E0BB
:1007E0000E941D0789E00E940A07CC16DD06B9F6B3
:1007F0008AE00E940A0788EB90E00E940E070F2E05
:10080000F4E7AF2EF0E0BF2EF02D0F2EF4EA8F2E7E
:10081000F0E09F2EF02D0F2EF4E6CF2EF0E0DF2E2D
:10082000F02D0F2EFEE15F2EF02DF7014191519139
:100830007F01F601819191916F019A01281B390B7B
:10084000C901589E9001599E300D11243695279567
:1008500036952795ABE7B4E10E94FA0896958795FF
:10086000FA01E81BF90BCF01F501819391935F0128
:100870006AE070E00E941D0789E00E940A078E145A
:100880009F0499F68AE00E940A078DEB90E00E948F
:100890000E070F2EF0E0EF2EF1E0FF2EF02D0F2EC1
:1008A000F0E2CF2EFEE4DF2EF02DF8016191719180
:1008B0008F01F301819191913F01681B790BC60172
:1008C0000E94E608CB01F701619371937F016AE012
:1008D00070E00E941D0789E00E940A070C171D079F
:1008E00021F782EC90E00E940E07DF91CF911F91DB
:1008F0000F91FF90EF90DF90CF90BF90AF909F90BF
:100900008F907F906F905F900895CF93DF93C82F63
:1009100080E090E00E94F80680E090E00E94FA06F5
:10092000AF98AE9AAD9AAC98D0E0CE010E94F8068E
:10093000CE010E94FA06DF91CF9108958C9A8D9A8C
:10094000B99A8B988A98BA98A79AA69AA59AA49ABF
:100950008F9ABB9A0E9449000E94FC060E94E406FE
:100960000E94EE060E9493012FEF83ED90E3215049
:1009700080409040E1F700C000000E94FD022FEF90
:1009800083ED90E3215080409040E1F700C00000EB
:100990000E949002C0E1D1E00E94B0000091EF00FF
:1009A00010E00E945B00F801E05FFE4F80838091C1
:1009B000EF00843040F11092EF00A0E1B1E060E080
:1009C00070E011964C911197362FCB012D91421763
:1009D00068F4FC01E05FFE4F21833150832F90E0EB
:1009E000FC01E05FFE4F2081421798F3FC01E05FBD
:1009F000FE4F41836F5F7F4F6430710511F78C812B
:100A00008093CA0003C08F5F8093EF008091CA007B
:100A1000893108F063C08091D500811176C00E94B1
:100A2000BA022FEF81EE94E0215080409040E1F730
:100A300000C000000E94CF0288E70E94E4022FEF6E
:100A40008BE49DE1215080409040E1F700C0000020
:100A50000E94A5022FEF81EF9BE221508040904041
:100A6000E1F700C0000088E70E9485042FEF8BE4C7
:100A70009DE1215080409040E1F700C000000E94BD
:100A8000A5022FEF89E79FE3215080409040E1F7D6
:100A900000C0000088E70E9485042FEF88EF95E1F1
:100AA000215080409040E1F700C000000E94A50264
:100AB0002FEF8FE097E2215080409040E1F700C097
:100AC00000000E94B0008091D50081111EC00E94DC
:100AD000B0008091D5008823D1F317C08091D50054
:100AE000811113C0839908C08CE80E94E402839BA3
:100AF000FECF0E94A50209C0B29907C08CE80E94EF
:100B00008504B29BFECF0E94A5028091D100813066
:100B100009F054C18091D6008450833008F04EC152
:100B20000E9490020CC00E94B0008091D0008130E1
:100B300009F42AC18091D200813009F425C1809145
:100B4000D100813081F38091D00081111DC180914D
:100B5000D200811119C12FEF81EE94E02150804025
:100B60009040E1F700C000000E94B0008091D500E5
:100B700081110AC18091D200811106C10E94BA027E
:100B80002FEF85EA9EE0215080409040E1F700C0C1
:100B9000000088E70E9485042FEF81EE94E0215049
:100BA00080409040E1F700C0000002C00E94B00009
:100BB0008091D5008823D1F38091D6008530B0F3A1
:100BC000E3C00E9490020CC00E94B0008091D0004F
:100BD000813009F4D9C08091D100813009F4D4C0AA
:100BE0008091D200813081F38091D0008111CCC0FE
:100BF0008091D1008111C8C02FEF82E597E021508C
:100C000080409040E1F700C000000E94B000809159
:100C1000D600833020F48091D50081111CC00E9441
:100C2000BA022FEF86E191E1215080409040E1F738
:100C300000C000000E94B00088E70E94E4022FEF8D
:100C400087E893E1215080409040E1F700C0000028
:100C500002C00E94B0008091D5008823D1F380911A
:100C6000D6008630B0F790C08091D000813009F076
:100C70008BC08091D6008450833008F085C00E94DC
:100C800090028091D0008130A9F48091D30090919E
:100C9000D40084369105ACF40E94B0008091D0005D
:100CA000813041F48091D3009091D4008436910535
:100CB0009CF307C08091D3009091D40084369105B5
:100CC0005CF10E94BA022FEF81EE94E02150804047
:100CD0009040E1F700C000000E94CF022FEF87EAAA
:100CE00091E6215080409040E1F700C000008091E3
:100CF000D500863009F048C08091D000813009F0DD
:100D000043C00E94B0008091D5008630E9F5809103
:100D1000D0008130B1F338C02FEF82E597E0215049
:100D200080409040E1F700C000000E94B00080EADF
:100D30000E94E4028091D500811126C08091D100EB
:100D4000811122C00E94BA022FEF86E191E1215069
:100D500080409040E1F700C0000088E70E94E40274
:100D60002FEF83EC99E0215080409040E1F700C0E4
:100D7000000002C00E94B0008091D5008823D1F30A
:100D80008091D6008630B0F78091D6008F3F09F46D
:100D900003CE0E94BA018091DA009091DB000E949C
:100DA000F8068091D8009091D9000E94FA06F4CDFF
:100DB0008091D6008450833038F703CF8091D200E1
:100DC000813009F051CFF4CF83B7886483BF83B7F4
:100DD000806283BF83B7816083BF089585B58864CF
:100DE00085BD85B5806285BD85B5816085BD089569
:100DF0008CBF089583BD089580B58F7B80BD5998C1
:100E000010BC87E689B98AB188618AB980B58E68D5
:100E100080BD08955D9BFECF8CB90895CF93DF937D
:100E2000EC018881882331F021960E940A0789917C
:100E30008111FBCFDF91CF910895CF93DF93CDB791
:100E4000DEB764970FB6F894DEBF0FBECDBFAB011F
:100E50005D9BFECFBE016F5F7F4F0E940909CE01EF
:100E600001960E940E0764960FB6F894DEBF0FBE7F
:100E7000CDBFDF91CF9108955058BB27AA270E947C
:100E800054070C9433080E94250838F00E942C085F
:100E900020F039F49F3F19F426F40C9422080EF444
:100EA000E095E7FB0C941C08E92F0E94440858F3D6
:100EB000BA17620773078407950720F079F4A6F53F
:100EC0000C9466080EF4E0950B2EBA2FA02D0B01A2
:100ED000B90190010C01CA01A0011124FF27591B7F
:100EE00099F0593F50F4503E68F11A16F040A22F85
:100EF000232F342F4427585FF3CF469537952795F6
:100F0000A795F0405395C9F77EF41F16BA0B620BF4
:100F1000730B840BBAF09150A1F0FF0FBB1F661F3B
:100F2000771F881FC2F70EC0BA0F621F731F841F7E
:100F300048F4879577956795B795F7959E3F08F0A4
:100F4000B0CF9395880F08F09927EE0F9795879566
:100F500008950E94B0076894B1110C946708089531
:100F60000E944C0888F09F5798F0B92F9927B751E5
:100F7000B0F0E1F0660F771F881F991F1AF0BA953D
:100F8000C9F714C0B13091F00E946608B1E008952D
:100F90000C946608672F782F8827B85F39F0B93F1F
:100FA000CCF3869577956795B395D9F73EF49095F0
:100FB0008095709561957F4F8F4F9F4F0895E8946E
:100FC00009C097FB3EF490958095709561957F4F91
:100FD0008F4F9F4F9923A9F0F92F96E9BB2793953F
:100FE000F695879577956795B795F111F8CFFAF44F
:100FF000BB0F11F460FF1BC06F5F7F4F8F4F9F4F80
:1010000016C0882311F096E911C0772321F09EE8DD
:10101000872F762F05C0662371F096E8862F70E043
:1010200060E02AF09A95660F771F881FDAF7880F1D
:101030009695879597F9089597F99F6780E870E0EE
:1010400060E008959FEF80EC089500240A9416163E
:10105000170618060906089500240A9412161306A6
:10106000140605060895092E0394000C11F4882334
:1010700052F0BB0F40F4BF2B11F460FF04C06F5F50
:101080007F4F8F4F9F4F089557FD9058440F551F26
:1010900059F05F3F71F04795880F97FB991F61F0FA
:1010A0009F3F79F087950895121613061406551F71
:1010B000F2CF4695F1DF08C0161617061806991FDD
:1010C000F1CF86957105610508940895E894BB27D2
:1010D00066277727CB0197F908950E9480080C9422
:1010E00033080E94250838F00E942C0820F0952330
:1010F00011F00C941C080C94220811240C9467081D
:101100000E94440870F3959FC1F3950F50E0551F5E
:10111000629FF001729FBB27F00DB11D639FAA274C
:10112000F00DB11DAA1F649F6627B00DA11D661F9B
:10113000829F2227B00DA11D621F739FB00DA11DBC
:10114000621F839FA00D611D221F749F3327A00D76
:10115000611D231F849F600D211D822F762F6A2F12
:1011600011249F5750409AF0F1F088234AF0EE0F77
:10117000FF1FBB1F661F771F881F91505040A9F7A4
:101180009E3F510580F00C941C080C9467085F3F4B
:10119000E4F3983ED4F3869577956795B795F795E0
:1011A000E7959F5FC1F7FE2B880F911D9695879558
:1011B00097F90895991B79E004C0991F961708F0D4
:1011C000961B881F7A95C9F780950895AA1BBB1BAB
:1011D00051E107C0AA1FBB1FA617B70710F0A61B37
:1011E000B70B881F991F5A95A9F780959095BC0158
:1011F000CD010895A29FB001B39FC001A39F700DC0
:10120000811D1124911DB29F700D811D1124911D0E
:1012100008954532510520F4423010F00C94140921
:10122000FB011082CB010895BB274A3031F499238A
:1012300022F4BDE2909581959F4F0C942009BB2725
:10124000FB015527AA27880F991FAA1FA41710F082
:10125000A41B83955051B9F7A05DAA3308F0A95D8E
:10126000A193009779F7B111B1931192CB010C942E
:101270003909DC01FC01672F71917723E1F732977F
:1012800004C07C916D9370836291AE17BF07C8F361
:061290000895F894FFCF61
:10129600FA004B00FF03FF03FF03FF03FF03FF03F7
:1012A600FF03FF037101E601B001F101DB01CB0190
:1012B600F701B6012302AC026A02C102A702970235
:1012C600D3027C0283016001B901A6018C01AB0146
:1012D600350143014D415809004D494E0900544816
:1012E60052090055544809004C5448090050524FC1
:0A12F60009000A0A0A0A0A0A0000A9
:00000001FF
